{
  "_format": "hh-sol-artifact-1",
  "contractName": "NFTLotteryPoolFactory",
  "sourceName": "contracts/NFTLotteryPoolFactory.sol",
  "abi": [
    {
      "anonymous": false,
      "inputs": [
        {
          "indexed": false,
          "internalType": "address",
          "name": "pool",
          "type": "address"
        },
        {
          "indexed": false,
          "internalType": "address",
          "name": "deployer",
          "type": "address"
        }
      ],
      "name": "LotteryDeployed",
      "type": "event"
    },
    {
      "anonymous": false,
      "inputs": [
        {
          "indexed": true,
          "internalType": "address",
          "name": "previousOwner",
          "type": "address"
        },
        {
          "indexed": true,
          "internalType": "address",
          "name": "newOwner",
          "type": "address"
        }
      ],
      "name": "OwnershipTransferred",
      "type": "event"
    },
    {
      "inputs": [],
      "name": "claimETH",
      "outputs": [],
      "stateMutability": "nonpayable",
      "type": "function"
    },
    {
      "inputs": [
        {
          "internalType": "address",
          "name": "_prizeAddress",
          "type": "address"
        },
        {
          "internalType": "uint256",
          "name": "_prizeId",
          "type": "uint256"
        },
        {
          "internalType": "uint64",
          "name": "_startDate",
          "type": "uint64"
        },
        {
          "internalType": "uint64",
          "name": "_endDate",
          "type": "uint64"
        },
        {
          "internalType": "uint32",
          "name": "_minTicketsToSell",
          "type": "uint32"
        },
        {
          "internalType": "uint32",
          "name": "_maxTickets",
          "type": "uint32"
        },
        {
          "internalType": "uint32",
          "name": "_maxTicketsPerAddress",
          "type": "uint32"
        },
        {
          "internalType": "uint256",
          "name": "_ticketPrice",
          "type": "uint256"
        }
      ],
      "name": "createNFTLotteryPool",
      "outputs": [],
      "stateMutability": "payable",
      "type": "function"
    },
    {
      "inputs": [],
      "name": "distributorAddress",
      "outputs": [
        {
          "internalType": "address",
          "name": "",
          "type": "address"
        }
      ],
      "stateMutability": "view",
      "type": "function"
    },
    {
      "inputs": [],
      "name": "fee",
      "outputs": [
        {
          "internalType": "uint256",
          "name": "",
          "type": "uint256"
        }
      ],
      "stateMutability": "view",
      "type": "function"
    },
    {
      "inputs": [],
      "name": "getAllPool",
      "outputs": [
        {
          "components": [
            {
              "internalType": "address",
              "name": "seller",
              "type": "address"
            },
            {
              "internalType": "address",
              "name": "poolAddr",
              "type": "address"
            },
            {
              "internalType": "address",
              "name": "nftAddr",
              "type": "address"
            },
            {
              "internalType": "uint256",
              "name": "tokenId",
              "type": "uint256"
            }
          ],
          "internalType": "struct NFTLotteryPoolFactory.PoolInfo[]",
          "name": "",
          "type": "tuple[]"
        }
      ],
      "stateMutability": "view",
      "type": "function"
    },
    {
      "inputs": [
        {
          "internalType": "bytes32",
          "name": "salt",
          "type": "bytes32"
        }
      ],
      "name": "getLotteryAddress",
      "outputs": [
        {
          "internalType": "address",
          "name": "",
          "type": "address"
        }
      ],
      "stateMutability": "view",
      "type": "function"
    },
    {
      "inputs": [
        {
          "internalType": "address",
          "name": "_distributorAddress",
          "type": "address"
        },
        {
          "internalType": "address",
          "name": "_linkAddress",
          "type": "address"
        },
        {
          "internalType": "uint256",
          "name": "_fee",
          "type": "uint256"
        },
        {
          "internalType": "address",
          "name": "_template",
          "type": "address"
        }
      ],
      "name": "initialize",
      "outputs": [],
      "stateMutability": "nonpayable",
      "type": "function"
    },
    {
      "inputs": [],
      "name": "linkAddress",
      "outputs": [
        {
          "internalType": "address",
          "name": "",
          "type": "address"
        }
      ],
      "stateMutability": "view",
      "type": "function"
    },
    {
      "inputs": [
        {
          "internalType": "address",
          "name": "",
          "type": "address"
        },
        {
          "internalType": "address",
          "name": "",
          "type": "address"
        },
        {
          "internalType": "uint256",
          "name": "",
          "type": "uint256"
        },
        {
          "internalType": "bytes",
          "name": "",
          "type": "bytes"
        }
      ],
      "name": "onERC721Received",
      "outputs": [
        {
          "internalType": "bytes4",
          "name": "",
          "type": "bytes4"
        }
      ],
      "stateMutability": "nonpayable",
      "type": "function"
    },
    {
      "inputs": [],
      "name": "owner",
      "outputs": [
        {
          "internalType": "address",
          "name": "",
          "type": "address"
        }
      ],
      "stateMutability": "view",
      "type": "function"
    },
    {
      "inputs": [],
      "name": "poolFee",
      "outputs": [
        {
          "internalType": "uint256",
          "name": "",
          "type": "uint256"
        }
      ],
      "stateMutability": "view",
      "type": "function"
    },
    {
      "inputs": [
        {
          "internalType": "uint256",
          "name": "",
          "type": "uint256"
        }
      ],
      "name": "poolIdToPoolInfos",
      "outputs": [
        {
          "internalType": "address",
          "name": "seller",
          "type": "address"
        },
        {
          "internalType": "address",
          "name": "poolAddr",
          "type": "address"
        },
        {
          "internalType": "address",
          "name": "nftAddr",
          "type": "address"
        },
        {
          "internalType": "uint256",
          "name": "tokenId",
          "type": "uint256"
        }
      ],
      "stateMutability": "view",
      "type": "function"
    },
    {
      "inputs": [],
      "name": "renounceOwnership",
      "outputs": [],
      "stateMutability": "nonpayable",
      "type": "function"
    },
    {
      "inputs": [],
      "name": "template",
      "outputs": [
        {
          "internalType": "address",
          "name": "",
          "type": "address"
        }
      ],
      "stateMutability": "view",
      "type": "function"
    },
    {
      "inputs": [
        {
          "internalType": "address",
          "name": "nftAddr",
          "type": "address"
        },
        {
          "internalType": "uint256",
          "name": "tokenId",
          "type": "uint256"
        }
      ],
      "name": "transferNft",
      "outputs": [],
      "stateMutability": "nonpayable",
      "type": "function"
    },
    {
      "inputs": [
        {
          "internalType": "address",
          "name": "newOwner",
          "type": "address"
        }
      ],
      "name": "transferOwnership",
      "outputs": [],
      "stateMutability": "nonpayable",
      "type": "function"
    },
    {
      "inputs": [
        {
          "internalType": "uint256",
          "name": "f",
          "type": "uint256"
        }
      ],
      "name": "updatePoolFee",
      "outputs": [],
      "stateMutability": "nonpayable",
      "type": "function"
    }
  ],
  "bytecode": "0x608060405234801561001057600080fd5b50611679806100206000396000f3fe6080604052600436106100fe5760003560e01c8063715018a611610095578063bd1dc0d111610064578063bd1dc0d11461030e578063be2030941461032e578063c2cac04b1461034e578063ddca3f431461036e578063f2fde38b1461038457600080fd5b8063715018a6146102995780638da5cb5b146102ae578063a20a4cb4146102cc578063a51af4c5146102ee57600080fd5b8063235cea98116100d1578063235cea981461020c57806360cc11211461024457806367272999146102645780636f2ddd931461027957600080fd5b8063089fe6aa146101035780630f2d385a1461012c578063150b7a02146101415780631f9b637e14610185575b600080fd5b34801561010f57600080fd5b5061011960cd5481565b6040519081526020015b60405180910390f35b61013f61013a366004611380565b6103a4565b005b34801561014d57600080fd5b5061016c61015c366004611282565b630a85bd0160e11b949350505050565b6040516001600160e01b03199091168152602001610123565b34801561019157600080fd5b506101d76101a0366004611428565b60cf6020526000908152604090208054600182015460028301546003909301546001600160a01b0392831693918316929091169084565b60405161012394939291906001600160a01b039485168152928416602084015292166040820152606081019190915260800190565b34801561021857600080fd5b5060ca5461022c906001600160a01b031681565b6040516001600160a01b039091168152602001610123565b34801561025057600080fd5b5061013f61025f366004611357565b610754565b34801561027057600080fd5b5061013f610905565b34801561028557600080fd5b5060ce5461022c906001600160a01b031681565b3480156102a557600080fd5b5061013f610998565b3480156102ba57600080fd5b506033546001600160a01b031661022c565b3480156102d857600080fd5b506102e16109ce565b604051610123919061145c565b3480156102fa57600080fd5b5060cb5461022c906001600160a01b031681565b34801561031a57600080fd5b5061022c610329366004611428565b610b08565b34801561033a57600080fd5b5061013f610349366004611236565b610b27565b34801561035a57600080fd5b5061013f610369366004611428565b610c39565b34801561037a57600080fd5b5061011960cc5481565b34801561039057600080fd5b5061013f61039f36600461121c565b610c68565b600260975414156103d05760405162461bcd60e51b81526004016103c790611581565b60405180910390fd5b600260975560cd543410156104115760405162461bcd60e51b81526020600482015260076024820152665061792066656560c81b60448201526064016103c7565b6000805b60c9548110156104b457600060cf8161042f8460016115b8565b81526020808201929092526040908101600020815160808101835281546001600160a01b03908116825260018301548116948201949094526002820154841692810183905260039091015460608201529250908c161480156104945750898160600151145b156104a157806020015192505b50806104ac816115fc565b915050610415565b506001600160a01b0381166105255760405162461bcd60e51b815260206004820152603160248201527f4552524f523a204e6f6e20457869737420506f6f6c2c20506c6561736520636860448201527032b1b5903cb7bab9103a3930b739b332b960791b60648201526084016103c7565b60405163b9a2457360e01b81526001600160a01b038a81166004830152602482018a905267ffffffffffffffff808a1660448401528816606483015263ffffffff808816608484015280871660a4840152851660c483015260e4820184905282169063b9a245739061010401600060405180830381600087803b1580156105ab57600080fd5b505af11580156105bf573d6000803e3d6000fd5b505060405163f2fde38b60e01b81523360048201526001600160a01b038416925063f2fde38b9150602401600060405180830381600087803b15801561060457600080fd5b505af1158015610618573d6000803e3d6000fd5b505060405163095ea7b360e01b81526001600160a01b038481166004830152602482018c90528c16925063095ea7b39150604401600060405180830381600087803b15801561066657600080fd5b505af115801561067a573d6000803e3d6000fd5b5050604051632142170760e11b81523060048201526001600160a01b038481166024830152604482018c90528c1692506342842e0e9150606401600060405180830381600087803b1580156106ce57600080fd5b505af11580156106e2573d6000803e3d6000fd5b505060cc5460ca5461070393506001600160a01b0316915033908490610d03565b604080516001600160a01b03831681523360208201527f7dda97fb513bc2337912013e6ada0de01392dd00f2044277559bbf64809e832e910160405180910390a15050600160975550505050505050565b600260975414156107775760405162461bcd60e51b81526004016103c790611581565b60026097556001600160a01b0382166342842e0e336040516001600160e01b031960e084901b1681526001600160a01b03909116600482015230602482015260448101849052606401600060405180830381600087803b1580156107da57600080fd5b505af11580156107ee573d6000803e3d6000fd5b5050505061080060c980546001019055565b600061080b60c95490565b60ce549091508190600090610829906001600160a01b031683610d63565b90506000604051806080016040528061083f3390565b6001600160a01b03908116825284811660208084019190915289821660408085019190915260609384018a9052600089815260cf8352818120865181549086166001600160a01b0319918216178255938701516001820180549187169186169190911790559186015160028301805491909516931692909217909255918301516003909101559091506108f790859060d0906108d83390565b6001600160a01b03168152602081019190915260400160002090610e03565b505060016097555050505050565b6033546001600160a01b0316331461092f5760405162461bcd60e51b81526004016103c790611501565b600260975414156109525760405162461bcd60e51b81526004016103c790611581565b60026097556033546040516001600160a01b03909116904780156108fc02916000818181858888f19350505050158015610990573d6000803e3d6000fd5b506001609755565b6033546001600160a01b031633146109c25760405162461bcd60e51b81526004016103c790611501565b6109cc6000610e16565b565b606060006109db60c95490565b67ffffffffffffffff811115610a0157634e487b7160e01b600052604160045260246000fd5b604051908082528060200260200182016040528015610a5357816020015b604080516080810182526000808252602080830182905292820181905260608201528252600019909201910181610a1f5790505b50905060005b60c954811015610b025760cf6000610a728360016115b8565b81526020808201929092526040908101600020815160808101835281546001600160a01b03908116825260018301548116948201949094526002820154909316918301919091526003015460608201528251839083908110610ae457634e487b7160e01b600052603260045260246000fd5b60200260200101819052508080610afa906115fc565b915050610a59565b50919050565b60ce54600090610b21906001600160a01b031683610e68565b92915050565b600054610100900460ff16610b425760005460ff1615610b46565b303b155b610ba95760405162461bcd60e51b815260206004820152602e60248201527f496e697469616c697a61626c653a20636f6e747261637420697320616c72656160448201526d191e481a5b9a5d1a585b1a5e995960921b60648201526084016103c7565b600054610100900460ff16158015610bcb576000805461ffff19166101011790555b610bd3610ece565b60ca80546001600160a01b038087166001600160a01b03199283161790925560cb805488841690831617905560cc85905560ce80549285169290911691909117905566038d7ea4c6800060cd558015610c32576000805461ff00191690555b5050505050565b6033546001600160a01b03163314610c635760405162461bcd60e51b81526004016103c790611501565b60cd55565b6033546001600160a01b03163314610c925760405162461bcd60e51b81526004016103c790611501565b6001600160a01b038116610cf75760405162461bcd60e51b815260206004820152602660248201527f4f776e61626c653a206e6577206f776e657220697320746865207a65726f206160448201526564647265737360d01b60648201526084016103c7565b610d0081610e16565b50565b604080516001600160a01b0385811660248301528416604482015260648082018490528251808303909101815260849091019091526020810180516001600160e01b03166323b872dd60e01b179052610d5d908590610efd565b50505050565b6000604051733d602d80600a3d3981f3363d3d373d3d3d363d7360601b81528360601b60148201526e5af43d82803e903d91602b57fd5bf360881b6028820152826037826000f59150506001600160a01b038116610b215760405162461bcd60e51b815260206004820152601760248201527f455243313136373a2063726561746532206661696c656400000000000000000060448201526064016103c7565b6000610e0f8383610fd4565b9392505050565b603380546001600160a01b038381166001600160a01b0319831681179093556040519116919082907f8be0079c531659141344cd1fd0a4f28419497f9722a3daafe3b4186f6b6457e090600090a35050565b6000610e0f838330604051733d602d80600a3d3981f3363d3d373d3d3d363d7360601b8152606093841b60148201526f5af43d82803e903d91602b57fd5bf3ff60801b6028820152921b6038830152604c8201526037808220606c830152605591012090565b600054610100900460ff16610ef55760405162461bcd60e51b81526004016103c790611536565b6109cc611023565b6000610f52826040518060400160405280602081526020017f5361666545524332303a206c6f772d6c6576656c2063616c6c206661696c6564815250856001600160a01b03166110539092919063ffffffff16565b805190915015610fcf5780806020019051810190610f709190611408565b610fcf5760405162461bcd60e51b815260206004820152602a60248201527f5361666545524332303a204552433230206f7065726174696f6e20646964206e6044820152691bdd081cdd58d8d9595960b21b60648201526084016103c7565b505050565b600081815260018301602052604081205461101b57508154600181810184556000848152602080822090930184905584548482528286019093526040902091909155610b21565b506000610b21565b600054610100900460ff1661104a5760405162461bcd60e51b81526004016103c790611536565b6109cc33610e16565b6060611062848460008561106a565b949350505050565b6060824710156110cb5760405162461bcd60e51b815260206004820152602660248201527f416464726573733a20696e73756666696369656e742062616c616e636520666f6044820152651c8818d85b1b60d21b60648201526084016103c7565b6001600160a01b0385163b6111225760405162461bcd60e51b815260206004820152601d60248201527f416464726573733a2063616c6c20746f206e6f6e2d636f6e747261637400000060448201526064016103c7565b600080866001600160a01b0316858760405161113e9190611440565b60006040518083038185875af1925050503d806000811461117b576040519150601f19603f3d011682016040523d82523d6000602084013e611180565b606091505b509150915061119082828661119b565b979650505050505050565b606083156111aa575081610e0f565b8251156111ba5782518084602001fd5b8160405162461bcd60e51b81526004016103c791906114ce565b80356001600160a01b03811681146111eb57600080fd5b919050565b803563ffffffff811681146111eb57600080fd5b803567ffffffffffffffff811681146111eb57600080fd5b60006020828403121561122d578081fd5b610e0f826111d4565b6000806000806080858703121561124b578283fd5b611254856111d4565b9350611262602086016111d4565b925060408501359150611277606086016111d4565b905092959194509250565b60008060008060808587031215611297578384fd5b6112a0856111d4565b93506112ae602086016111d4565b925060408501359150606085013567ffffffffffffffff808211156112d1578283fd5b818701915087601f8301126112e4578283fd5b8135818111156112f6576112f661162d565b604051601f8201601f19908116603f0116810190838211818310171561131e5761131e61162d565b816040528281528a6020848701011115611336578586fd5b82602086016020830137918201602001949094529598949750929550505050565b60008060408385031215611369578182fd5b611372836111d4565b946020939093013593505050565b600080600080600080600080610100898b03121561139c578384fd5b6113a5896111d4565b9750602089013596506113ba60408a01611204565b95506113c860608a01611204565b94506113d660808a016111f0565b93506113e460a08a016111f0565b92506113f260c08a016111f0565b915060e089013590509295985092959890939650565b600060208284031215611419578081fd5b81518015158114610e0f578182fd5b600060208284031215611439578081fd5b5035919050565b600082516114528184602087016115d0565b9190910192915050565b602080825282518282018190526000919060409081850190868401855b828110156114c157815180516001600160a01b039081168652878201518116888701528682015116868601526060908101519085015260809093019290850190600101611479565b5091979650505050505050565b60208152600082518060208401526114ed8160408501602087016115d0565b601f01601f19169190910160400192915050565b6020808252818101527f4f776e61626c653a2063616c6c6572206973206e6f7420746865206f776e6572604082015260600190565b6020808252602b908201527f496e697469616c697a61626c653a20636f6e7472616374206973206e6f74206960408201526a6e697469616c697a696e6760a81b606082015260800190565b6020808252601f908201527f5265656e7472616e637947756172643a207265656e7472616e742063616c6c00604082015260600190565b600082198211156115cb576115cb611617565b500190565b60005b838110156115eb5781810151838201526020016115d3565b83811115610d5d5750506000910152565b600060001982141561161057611610611617565b5060010190565b634e487b7160e01b600052601160045260246000fd5b634e487b7160e01b600052604160045260246000fdfea26469706673582212205d2ddf38025b153c085df2592f29b1f9f722138c3c1aed375c499ec94ad2829564736f6c63430008040033",
  "linkReferences": {},
  "deployedLinkReferences": {}
}