{
  "_format": "hh-sol-artifact-1",
  "contractName": "NFTLotteryPool",
  "sourceName": "contracts/NFTLotteryPool.sol",
  "abi": [
    {
      "anonymous": false,
      "inputs": [
        {
          "indexed": true,
          "internalType": "address",
          "name": "owner",
          "type": "address"
        },
        {
          "indexed": true,
          "internalType": "address",
          "name": "approved",
          "type": "address"
        },
        {
          "indexed": true,
          "internalType": "uint256",
          "name": "tokenId",
          "type": "uint256"
        }
      ],
      "name": "Approval",
      "type": "event"
    },
    {
      "anonymous": false,
      "inputs": [
        {
          "indexed": true,
          "internalType": "address",
          "name": "owner",
          "type": "address"
        },
        {
          "indexed": true,
          "internalType": "address",
          "name": "operator",
          "type": "address"
        },
        {
          "indexed": false,
          "internalType": "bool",
          "name": "approved",
          "type": "bool"
        }
      ],
      "name": "ApprovalForAll",
      "type": "event"
    },
    {
      "anonymous": false,
      "inputs": [
        {
          "indexed": true,
          "internalType": "address",
          "name": "previousOwner",
          "type": "address"
        },
        {
          "indexed": true,
          "internalType": "address",
          "name": "newOwner",
          "type": "address"
        }
      ],
      "name": "OwnershipTransferred",
      "type": "event"
    },
    {
      "anonymous": false,
      "inputs": [
        {
          "indexed": true,
          "internalType": "address",
          "name": "from",
          "type": "address"
        },
        {
          "indexed": true,
          "internalType": "address",
          "name": "to",
          "type": "address"
        },
        {
          "indexed": true,
          "internalType": "uint256",
          "name": "tokenId",
          "type": "uint256"
        }
      ],
      "name": "Transfer",
      "type": "event"
    },
    {
      "inputs": [
        {
          "internalType": "address",
          "name": "to",
          "type": "address"
        },
        {
          "internalType": "uint256",
          "name": "tokenId",
          "type": "uint256"
        }
      ],
      "name": "approve",
      "outputs": [],
      "stateMutability": "nonpayable",
      "type": "function"
    },
    {
      "inputs": [
        {
          "internalType": "address",
          "name": "owner",
          "type": "address"
        }
      ],
      "name": "balanceOf",
      "outputs": [
        {
          "internalType": "uint256",
          "name": "",
          "type": "uint256"
        }
      ],
      "stateMutability": "view",
      "type": "function"
    },
    {
      "inputs": [
        {
          "internalType": "uint256",
          "name": "numTickets",
          "type": "uint256"
        }
      ],
      "name": "buyTickets",
      "outputs": [],
      "stateMutability": "payable",
      "type": "function"
    },
    {
      "inputs": [],
      "name": "claimETH",
      "outputs": [],
      "stateMutability": "nonpayable",
      "type": "function"
    },
    {
      "inputs": [],
      "name": "distributePrize",
      "outputs": [],
      "stateMutability": "nonpayable",
      "type": "function"
    },
    {
      "inputs": [],
      "name": "endDate",
      "outputs": [
        {
          "internalType": "uint64",
          "name": "",
          "type": "uint64"
        }
      ],
      "stateMutability": "view",
      "type": "function"
    },
    {
      "inputs": [
        {
          "internalType": "uint256",
          "name": "tokenId",
          "type": "uint256"
        }
      ],
      "name": "getApproved",
      "outputs": [
        {
          "internalType": "address",
          "name": "",
          "type": "address"
        }
      ],
      "stateMutability": "view",
      "type": "function"
    },
    {
      "inputs": [],
      "name": "getRefund",
      "outputs": [],
      "stateMutability": "nonpayable",
      "type": "function"
    },
    {
      "inputs": [],
      "name": "hasCalledVRF",
      "outputs": [
        {
          "internalType": "bool",
          "name": "",
          "type": "bool"
        }
      ],
      "stateMutability": "view",
      "type": "function"
    },
    {
      "inputs": [
        {
          "internalType": "address",
          "name": "_prizeAddress",
          "type": "address"
        },
        {
          "internalType": "uint256",
          "name": "_prizeId",
          "type": "uint256"
        },
        {
          "internalType": "uint64",
          "name": "_startDate",
          "type": "uint64"
        },
        {
          "internalType": "uint64",
          "name": "_endDate",
          "type": "uint64"
        },
        {
          "internalType": "uint32",
          "name": "_minTicketsToSell",
          "type": "uint32"
        },
        {
          "internalType": "uint32",
          "name": "_maxTickets",
          "type": "uint32"
        },
        {
          "internalType": "uint32",
          "name": "_maxTicketsPerAddress",
          "type": "uint32"
        },
        {
          "internalType": "uint256",
          "name": "_ticketPrice",
          "type": "uint256"
        }
      ],
      "name": "initialize",
      "outputs": [],
      "stateMutability": "nonpayable",
      "type": "function"
    },
    {
      "inputs": [
        {
          "internalType": "address",
          "name": "owner",
          "type": "address"
        },
        {
          "internalType": "address",
          "name": "operator",
          "type": "address"
        }
      ],
      "name": "isApprovedForAll",
      "outputs": [
        {
          "internalType": "bool",
          "name": "",
          "type": "bool"
        }
      ],
      "stateMutability": "view",
      "type": "function"
    },
    {
      "inputs": [],
      "name": "isRefundOpen",
      "outputs": [
        {
          "internalType": "bool",
          "name": "",
          "type": "bool"
        }
      ],
      "stateMutability": "view",
      "type": "function"
    },
    {
      "inputs": [],
      "name": "maxTickets",
      "outputs": [
        {
          "internalType": "uint32",
          "name": "",
          "type": "uint32"
        }
      ],
      "stateMutability": "view",
      "type": "function"
    },
    {
      "inputs": [],
      "name": "maxTicketsPerAddress",
      "outputs": [
        {
          "internalType": "uint32",
          "name": "",
          "type": "uint32"
        }
      ],
      "stateMutability": "view",
      "type": "function"
    },
    {
      "inputs": [],
      "name": "minTicketsToSell",
      "outputs": [
        {
          "internalType": "uint32",
          "name": "",
          "type": "uint32"
        }
      ],
      "stateMutability": "view",
      "type": "function"
    },
    {
      "inputs": [],
      "name": "name",
      "outputs": [
        {
          "internalType": "string",
          "name": "",
          "type": "string"
        }
      ],
      "stateMutability": "view",
      "type": "function"
    },
    {
      "inputs": [
        {
          "internalType": "address",
          "name": "",
          "type": "address"
        },
        {
          "internalType": "address",
          "name": "",
          "type": "address"
        },
        {
          "internalType": "uint256",
          "name": "",
          "type": "uint256"
        },
        {
          "internalType": "bytes",
          "name": "",
          "type": "bytes"
        }
      ],
      "name": "onERC721Received",
      "outputs": [
        {
          "internalType": "bytes4",
          "name": "",
          "type": "bytes4"
        }
      ],
      "stateMutability": "nonpayable",
      "type": "function"
    },
    {
      "inputs": [],
      "name": "owner",
      "outputs": [
        {
          "internalType": "address",
          "name": "",
          "type": "address"
        }
      ],
      "stateMutability": "view",
      "type": "function"
    },
    {
      "inputs": [
        {
          "internalType": "uint256",
          "name": "tokenId",
          "type": "uint256"
        }
      ],
      "name": "ownerOf",
      "outputs": [
        {
          "internalType": "address",
          "name": "",
          "type": "address"
        }
      ],
      "stateMutability": "view",
      "type": "function"
    },
    {
      "inputs": [],
      "name": "prizeAddress",
      "outputs": [
        {
          "internalType": "address",
          "name": "",
          "type": "address"
        }
      ],
      "stateMutability": "view",
      "type": "function"
    },
    {
      "inputs": [],
      "name": "prizeId",
      "outputs": [
        {
          "internalType": "uint256",
          "name": "",
          "type": "uint256"
        }
      ],
      "stateMutability": "view",
      "type": "function"
    },
    {
      "inputs": [],
      "name": "refundOwnerAssets",
      "outputs": [],
      "stateMutability": "nonpayable",
      "type": "function"
    },
    {
      "inputs": [],
      "name": "renounceOwnership",
      "outputs": [],
      "stateMutability": "nonpayable",
      "type": "function"
    },
    {
      "inputs": [
        {
          "internalType": "address",
          "name": "from",
          "type": "address"
        },
        {
          "internalType": "address",
          "name": "to",
          "type": "address"
        },
        {
          "internalType": "uint256",
          "name": "tokenId",
          "type": "uint256"
        }
      ],
      "name": "safeTransferFrom",
      "outputs": [],
      "stateMutability": "nonpayable",
      "type": "function"
    },
    {
      "inputs": [
        {
          "internalType": "address",
          "name": "from",
          "type": "address"
        },
        {
          "internalType": "address",
          "name": "to",
          "type": "address"
        },
        {
          "internalType": "uint256",
          "name": "tokenId",
          "type": "uint256"
        },
        {
          "internalType": "bytes",
          "name": "_data",
          "type": "bytes"
        }
      ],
      "name": "safeTransferFrom",
      "outputs": [],
      "stateMutability": "nonpayable",
      "type": "function"
    },
    {
      "inputs": [
        {
          "internalType": "address",
          "name": "operator",
          "type": "address"
        },
        {
          "internalType": "bool",
          "name": "approved",
          "type": "bool"
        }
      ],
      "name": "setApprovalForAll",
      "outputs": [],
      "stateMutability": "nonpayable",
      "type": "function"
    },
    {
      "inputs": [],
      "name": "startDate",
      "outputs": [
        {
          "internalType": "uint64",
          "name": "",
          "type": "uint64"
        }
      ],
      "stateMutability": "view",
      "type": "function"
    },
    {
      "inputs": [
        {
          "internalType": "bytes4",
          "name": "interfaceId",
          "type": "bytes4"
        }
      ],
      "name": "supportsInterface",
      "outputs": [
        {
          "internalType": "bool",
          "name": "",
          "type": "bool"
        }
      ],
      "stateMutability": "view",
      "type": "function"
    },
    {
      "inputs": [],
      "name": "symbol",
      "outputs": [
        {
          "internalType": "string",
          "name": "",
          "type": "string"
        }
      ],
      "stateMutability": "view",
      "type": "function"
    },
    {
      "inputs": [],
      "name": "ticketPrice",
      "outputs": [
        {
          "internalType": "uint256",
          "name": "",
          "type": "uint256"
        }
      ],
      "stateMutability": "view",
      "type": "function"
    },
    {
      "inputs": [
        {
          "internalType": "uint256",
          "name": "index",
          "type": "uint256"
        }
      ],
      "name": "tokenByIndex",
      "outputs": [
        {
          "internalType": "uint256",
          "name": "",
          "type": "uint256"
        }
      ],
      "stateMutability": "view",
      "type": "function"
    },
    {
      "inputs": [],
      "name": "tokenCounter",
      "outputs": [
        {
          "internalType": "uint256",
          "name": "",
          "type": "uint256"
        }
      ],
      "stateMutability": "view",
      "type": "function"
    },
    {
      "inputs": [
        {
          "internalType": "address",
          "name": "owner",
          "type": "address"
        },
        {
          "internalType": "uint256",
          "name": "index",
          "type": "uint256"
        }
      ],
      "name": "tokenOfOwnerByIndex",
      "outputs": [
        {
          "internalType": "uint256",
          "name": "",
          "type": "uint256"
        }
      ],
      "stateMutability": "view",
      "type": "function"
    },
    {
      "inputs": [
        {
          "internalType": "uint256",
          "name": "id",
          "type": "uint256"
        }
      ],
      "name": "tokenURI",
      "outputs": [
        {
          "internalType": "string",
          "name": "",
          "type": "string"
        }
      ],
      "stateMutability": "view",
      "type": "function"
    },
    {
      "inputs": [
        {
          "internalType": "address",
          "name": "owner",
          "type": "address"
        }
      ],
      "name": "tokensOfOwner",
      "outputs": [
        {
          "internalType": "uint256[]",
          "name": "",
          "type": "uint256[]"
        }
      ],
      "stateMutability": "view",
      "type": "function"
    },
    {
      "inputs": [],
      "name": "totalSupply",
      "outputs": [
        {
          "internalType": "uint256",
          "name": "",
          "type": "uint256"
        }
      ],
      "stateMutability": "view",
      "type": "function"
    },
    {
      "inputs": [
        {
          "internalType": "address",
          "name": "from",
          "type": "address"
        },
        {
          "internalType": "address",
          "name": "to",
          "type": "address"
        },
        {
          "internalType": "uint256",
          "name": "tokenId",
          "type": "uint256"
        }
      ],
      "name": "transferFrom",
      "outputs": [],
      "stateMutability": "nonpayable",
      "type": "function"
    },
    {
      "inputs": [
        {
          "internalType": "address",
          "name": "newOwner",
          "type": "address"
        }
      ],
      "name": "transferOwnership",
      "outputs": [],
      "stateMutability": "nonpayable",
      "type": "function"
    }
  ],
  "bytecode": "0x608060405234801561001057600080fd5b506133c7806100206000396000f3fe6080604052600436106102255760003560e01c806370a0823111610123578063b2d5ae44116100ab578063c87b56dd1161006f578063c87b56dd1461068b578063d03c0cd0146106ab578063d082e381146106c2578063e985e9c5146106d9578063f2fde38b1461072257600080fd5b8063b2d5ae44146105ee578063b30196e514610603578063b88d4fde14610623578063b9a2457314610643578063c24a0f8b1461066357600080fd5b80638da5cb5b116100f25780638da5cb5b1461055b57806395d89b41146105795780639b8947031461058e578063a22cb465146105b3578063b2bf1d19146105d357600080fd5b806370a08231146104e4578063715018a61461050457806377b6e504146105195780638462151c1461052e57600080fd5b8063150b7a02116101b157806342842e0e1161017557806342842e0e1461044a578063463a94a51461046a5780634f6ccce71461048f5780636352211e146104af57806367272999146104cf57600080fd5b8063150b7a02146103a957806318160ddd146103e257806323b872dd146103f75780632f366637146104175780632f745c591461042a57600080fd5b8063095ea7b3116101f8578063095ea7b3146102f35780630a961fa1146103155780630b97bc861461032a5780630de37287146103635780631209b1f61461038457600080fd5b806301ffc9a71461022a57806306a796371461025f57806306fdde0314610299578063081812fc146102bb575b600080fd5b34801561023657600080fd5b5061024a610245366004612f02565b610742565b60405190151581526020015b60405180910390f35b34801561026b57600080fd5b506101645461028490600160801b900463ffffffff1681565b60405163ffffffff9091168152602001610256565b3480156102a557600080fd5b506102ae61076d565b60405161025691906130a5565b3480156102c757600080fd5b506102db6102d6366004612fac565b6107ff565b6040516001600160a01b039091168152602001610256565b3480156102ff57600080fd5b5061031361030e366004612e31565b610899565b005b34801561032157600080fd5b506103136109af565b34801561033657600080fd5b506101645461034b906001600160401b031681565b6040516001600160401b039091168152602001610256565b34801561036f57600080fd5b50610162546102db906001600160a01b031681565b34801561039057600080fd5b5061039b6101655481565b604051908152602001610256565b3480156103b557600080fd5b506103c96103c4366004612d5e565b610bbb565b6040516001600160e01b03199091168152602001610256565b3480156103ee57600080fd5b5060995461039b565b34801561040357600080fd5b50610313610412366004612d1e565b610bcc565b610313610425366004612fac565b610bfd565b34801561043657600080fd5b5061039b610445366004612e31565b610e02565b34801561045657600080fd5b50610313610465366004612d1e565b610e98565b34801561047657600080fd5b506101645461028490600160c01b900463ffffffff1681565b34801561049b57600080fd5b5061039b6104aa366004612fac565b610eb3565b3480156104bb57600080fd5b506102db6104ca366004612fac565b610f54565b3480156104db57600080fd5b50610313610fcb565b3480156104f057600080fd5b5061039b6104ff366004612cae565b611148565b34801561051057600080fd5b506103136111cf565b34801561052557600080fd5b50610313611205565b34801561053a57600080fd5b5061054e610549366004612cae565b6115ac565b6040516102569190613061565b34801561056757600080fd5b5060c9546001600160a01b03166102db565b34801561058557600080fd5b506102ae611669565b34801561059a57600080fd5b506101645461028490600160a01b900463ffffffff1681565b3480156105bf57600080fd5b506103136105ce366004612e04565b611678565b3480156105df57600080fd5b506101665461024a9060ff1681565b3480156105fa57600080fd5b50610313611683565b34801561060f57600080fd5b506101665461024a90610100900460ff1681565b34801561062f57600080fd5b5061031361063e366004612d5e565b61181d565b34801561064f57600080fd5b5061031361065e366004612e5c565b61184f565b34801561066f57600080fd5b506101645461034b90600160401b90046001600160401b031681565b34801561069757600080fd5b506102ae6106a6366004612fac565b611c97565b3480156106b757600080fd5b5061039b6101635481565b3480156106ce57600080fd5b5061039b6101675481565b3480156106e557600080fd5b5061024a6106f4366004612ce6565b6001600160a01b039182166000908152606a6020908152604080832093909416825291909152205460ff1690565b34801561072e57600080fd5b5061031361073d366004612cae565b611d96565b60006001600160e01b0319821663780e9d6360e01b1480610767575061076782611e2e565b92915050565b60606065805461077c906132d6565b80601f01602080910402602001604051908101604052809291908181526020018280546107a8906132d6565b80156107f55780601f106107ca576101008083540402835291602001916107f5565b820191906000526020600020905b8154815290600101906020018083116107d857829003601f168201915b5050505050905090565b6000818152606760205260408120546001600160a01b031661087d5760405162461bcd60e51b815260206004820152602c60248201527f4552433732313a20617070726f76656420717565727920666f72206e6f6e657860448201526b34b9ba32b73a103a37b5b2b760a11b60648201526084015b60405180910390fd5b506000908152606960205260409020546001600160a01b031690565b60006108a482610f54565b9050806001600160a01b0316836001600160a01b031614156109125760405162461bcd60e51b815260206004820152602160248201527f4552433732313a20617070726f76616c20746f2063757272656e74206f776e656044820152603960f91b6064820152608401610874565b336001600160a01b038216148061092e575061092e81336106f4565b6109a05760405162461bcd60e51b815260206004820152603860248201527f4552433732313a20617070726f76652063616c6c6572206973206e6f74206f7760448201527f6e6572206e6f7220617070726f76656420666f7220616c6c00000000000000006064820152608401610874565b6109aa8383611e7e565b505050565b60c9546001600160a01b031633146109d95760405162461bcd60e51b81526004016108749061310a565b61016454600160401b90046001600160401b03164211610a0b5760405162461bcd60e51b8152600401610874906131db565b6101645461016754600160801b90910463ffffffff161180610a35575061016654610100900460ff165b610a775760405162461bcd60e51b8152602060048201526013602482015272115b9bdd59da081d1a58dad95d1cc81cdbdb19606a1b6044820152606401610874565b610b29610a8c60c9546001600160a01b031690565b61015f60009054906101000a90046001600160a01b03166001600160a01b031663ddca3f436040518163ffffffff1660e01b8152600401602060405180830381600087803b158015610add57600080fd5b505af1158015610af1573d6000803e3d6000fd5b505050506040513d601f19601f82011682018060405250810190610b159190612fc4565b610161546001600160a01b03169190611eec565b610162546001600160a01b03166342842e0e30610b4e60c9546001600160a01b031690565b610163546040516001600160e01b031960e086901b1681526001600160a01b0393841660048201529290911660248301526044820152606401600060405180830381600087803b158015610ba157600080fd5b505af1158015610bb5573d6000803e3d6000fd5b50505050565b630a85bd0160e11b5b949350505050565b610bd63382611f3e565b610bf25760405162461bcd60e51b81526004016108749061313f565b6109aa838383612031565b610164546001600160401b0316421015610c455760405162461bcd60e51b8152602060048201526009602482015268546f6f206561726c7960b81b6044820152606401610874565b61016454600160c01b900463ffffffff16610c6982610c6333611148565b906121d8565b1115610caa5760405162461bcd60e51b815260206004820152601060248201526f486f6c64696e6720746f6f206d616e7960801b6044820152606401610874565b610164546101675463ffffffff600160a01b909204821691610ccf919084906121d816565b1115610d125760405162461bcd60e51b815260206004820152601260248201527145786365656473206d617820737570706c7960701b6044820152606401610874565b61016554610d2090826121eb565b3414610d605760405162461bcd60e51b815260206004820152600f60248201526e141c9a58d9481a5b98dbdc9c9958dd608a1b6044820152606401610874565b61016454600160401b90046001600160401b03164210610db15760405162461bcd60e51b815260206004820152600c60248201526b2637ba3a32b93c9037bb32b960a11b6044820152606401610874565b60005b81811015610dfe57610dd533610167546001610dd0919061325c565b6121f7565b6101678054906000610de683613311565b91905055508080610df690613311565b915050610db4565b5050565b6000610e0d83611148565b8210610e6f5760405162461bcd60e51b815260206004820152602b60248201527f455243373231456e756d657261626c653a206f776e657220696e646578206f7560448201526a74206f6620626f756e647360a81b6064820152608401610874565b506001600160a01b03919091166000908152609760209081526040808320938352929052205490565b6109aa8383836040518060200160405280600081525061181d565b6000610ebe60995490565b8210610f215760405162461bcd60e51b815260206004820152602c60248201527f455243373231456e756d657261626c653a20676c6f62616c20696e646578206f60448201526b7574206f6620626f756e647360a01b6064820152608401610874565b60998281548110610f4257634e487b7160e01b600052603260045260246000fd5b90600052602060002001549050919050565b6000818152606760205260408120546001600160a01b0316806107675760405162461bcd60e51b815260206004820152602960248201527f4552433732313a206f776e657220717565727920666f72206e6f6e657869737460448201526832b73a103a37b5b2b760b91b6064820152608401610874565b60c9546001600160a01b03163314610ff55760405162461bcd60e51b81526004016108749061310a565b6101665460ff1661103e5760405162461bcd60e51b8152602060048201526013602482015272135d5cdd0818d85b1b0815949188199a5c9cdd606a1b6044820152606401610874565b6101605461016254610163546040516331a9108f60e11b815260048101919091526001600160a01b039283169290911690636352211e9060240160206040518083038186803b15801561109057600080fd5b505afa1580156110a4573d6000803e3d6000fd5b505050506040513d601f19601f820116820180604052508101906110c89190612cca565b6001600160a01b0316141561110c5760405162461bcd60e51b815260206004820152600a602482015269139bc8159491881e595d60b21b6044820152606401610874565b60c9546040516001600160a01b03909116904780156108fc02916000818181858888f19350505050158015611145573d6000803e3d6000fd5b50565b60006001600160a01b0382166111b35760405162461bcd60e51b815260206004820152602a60248201527f4552433732313a2062616c616e636520717565727920666f7220746865207a65604482015269726f206164647265737360b01b6064820152608401610874565b506001600160a01b031660009081526068602052604090205490565b60c9546001600160a01b031633146111f95760405162461bcd60e51b81526004016108749061310a565b6112036000612345565b565b60c9546001600160a01b0316331461122f5760405162461bcd60e51b81526004016108749061310a565b6101645461016754600160801b90910463ffffffff1611156112935760405162461bcd60e51b815260206004820152601760248201527f4e6f7420656e6f756768207469636b65747320736f6c640000000000000000006044820152606401610874565b61016454600160401b90046001600160401b031642116112c55760405162461bcd60e51b8152600401610874906131db565b6101665460ff161561130e5760405162461bcd60e51b815260206004820152601260248201527120b63932b0b23c9031b0b63632b2102b292360711b6044820152606401610874565b610161546101605461015f546040805163ddca3f4360e01b815290516001600160a01b039485169463095ea7b394811693169163ddca3f439160048083019260209291908290030181600087803b15801561136857600080fd5b505af115801561137c573d6000803e3d6000fd5b505050506040513d601f19601f820116820180604052508101906113a09190612fc4565b6040516001600160e01b031960e085901b1681526001600160a01b0390921660048301526024820152604401602060405180830381600087803b1580156113e657600080fd5b505af11580156113fa573d6000803e3d6000fd5b505050506040513d601f19601f8201168201806040525081019061141e9190612ee6565b50610162546101605460405163a22cb46560e01b81526001600160a01b0391821660048201526001602482015291169063a22cb46590604401600060405180830381600087803b15801561147157600080fd5b505af1158015611485573d6000803e3d6000fd5b50506101605461015f546040805163ddca3f4360e01b815290516001600160a01b0393841695506320d45bd49450919092169163ddca3f439160048083019260209291908290030181600087803b1580156114df57600080fd5b505af11580156114f3573d6000803e3d6000fd5b505050506040513d601f19601f820116820180604052508101906115179190612fc4565b61016754610162546101635460405160e086901b6001600160e01b031916815260048101949094523060248501526001604485015260648401929092526001600160a01b0316608483015260a482015260c401600060405180830381600087803b15801561158457600080fd5b505af1158015611598573d6000803e3d6000fd5b5050610166805460ff191660011790555050565b606060006115b983611148565b90506000816001600160401b038111156115e357634e487b7160e01b600052604160045260246000fd5b60405190808252806020026020018201604052801561160c578160200160208202803683370190505b50905060005b82811015611661576116248582610e02565b82828151811061164457634e487b7160e01b600052603260045260246000fd5b60209081029190910101528061165981613311565b915050611612565b509392505050565b60606066805461077c906132d6565b610dfe338383612397565b600261012d5414156116d75760405162461bcd60e51b815260206004820152601f60248201527f5265656e7472616e637947756172643a207265656e7472616e742063616c6c006044820152606401610874565b600261012d5561016454600160401b90046001600160401b0316421161170f5760405162461bcd60e51b8152600401610874906131db565b6101645461016754600160801b90910463ffffffff16118061173557506101665460ff16155b6117775760405162461bcd60e51b8152602060048201526013602482015272115b9bdd59da081d1a58dad95d1cc81cdbdb19606a1b6044820152606401610874565b6000611782336115ac565b90506000805b82518110156117e4576117c18382815181106117b457634e487b7160e01b600052603260045260246000fd5b6020026020010151612466565b610165546117d09083906121d8565b9150806117dc81613311565b915050611788565b50604051339082156108fc029083906000818181858888f19350505050158015611812573d6000803e3d6000fd5b5050600161012d5550565b6118273383611f3e565b6118435760405162461bcd60e51b81526004016108749061313f565b610bb58484848461250d565b600054610100900460ff1661186a5760005460ff161561186e565b303b155b6118d15760405162461bcd60e51b815260206004820152602e60248201527f496e697469616c697a61626c653a20636f6e747261637420697320616c72656160448201526d191e481a5b9a5d1a585b1a5e995960921b6064820152608401610874565b600054610100900460ff161580156118f3576000805461ffff19166101011790555b866001600160401b0316866001600160401b03161161194a5760405162461bcd60e51b8152602060048201526013602482015272115b99081a5cc81899599bdc99481cdd185c9d606a1b6044820152606401610874565b60008563ffffffff16116119965760405162461bcd60e51b81526020600482015260136024820152724d696e2073656c6c206174206c65617374203160681b6044820152606401610874565b8363ffffffff168563ffffffff1611156119e95760405162461bcd60e51b815260206004820152601460248201527309ad2dc40cee4cac2e8cae440e8d0c2dc40dac2f60631b6044820152606401610874565b60018363ffffffff161015611a405760405162461bcd60e51b815260206004820152601e60248201527f4d7573742062652061626c6520746f20627579206174206c65617374203100006044820152606401610874565b611a48612540565b611a936040518060400160405280600b81526020016a4e46542d4c4f545445525960a81b815250604051806040016040528060068152602001654c4f4f544f4f60d01b81525061256f565b611a9c33611d96565b61015f80546001600160a01b031916339081179091556040805163046b9d5360e31b8152905163235cea98916004808201926020929091908290030181600087803b158015611aea57600080fd5b505af1158015611afe573d6000803e3d6000fd5b505050506040513d601f19601f82011682018060405250810190611b229190612cca565b61016180546001600160a01b0319166001600160a01b0392831617905561015f546040805163a51af4c560e01b81529051919092169163a51af4c59160048083019260209291908290030181600087803b158015611b7f57600080fd5b505af1158015611b93573d6000803e3d6000fd5b505050506040513d601f19601f82011682018060405250810190611bb79190612cca565b61016080546001600160a01b03199081166001600160a01b03938416179091556101628054909116918b1691909117905561016388905561016480546001600160401b038981166fffffffffffffffffffffffffffffffff1990921691909117600160401b918916919091021767ffffffffffffffff60801b1916600160801b63ffffffff8881169190910263ffffffff60a01b191691909117600160a01b878316021763ffffffff60c01b1916600160c01b918616919091021790556101658290558015611c8c576000805461ff00191690555b505050505050505050565b61015f5460408051631bebb49560e11b815290516060926001600160a01b0316916337d7692a916004808301926020929190829003018186803b158015611cdd57600080fd5b505afa158015611cf1573d6000803e3d6000fd5b505050506040513d601f19601f82011682018060405250810190611d159190612cca565b6001600160a01b031663c87b56dd836040518263ffffffff1660e01b8152600401611d4291815260200190565b60006040518083038186803b158015611d5a57600080fd5b505afa158015611d6e573d6000803e3d6000fd5b505050506040513d6000823e601f3d908101601f191682016040526107679190810190612f3a565b60c9546001600160a01b03163314611dc05760405162461bcd60e51b81526004016108749061310a565b6001600160a01b038116611e255760405162461bcd60e51b815260206004820152602660248201527f4f776e61626c653a206e6577206f776e657220697320746865207a65726f206160448201526564647265737360d01b6064820152608401610874565b61114581612345565b60006001600160e01b031982166380ac58cd60e01b1480611e5f57506001600160e01b03198216635b5e139f60e01b145b8061076757506301ffc9a760e01b6001600160e01b0319831614610767565b600081815260696020526040902080546001600160a01b0319166001600160a01b0384169081179091558190611eb382610f54565b6001600160a01b03167f8c5be1e5ebec7d5bd14f71427d1e84f3dd0314c0f7b2291e5b200ac8c7c3b92560405160405180910390a45050565b604080516001600160a01b038416602482015260448082018490528251808303909101815260649091019091526020810180516001600160e01b031663a9059cbb60e01b1790526109aa9084906125a0565b6000818152606760205260408120546001600160a01b0316611fb75760405162461bcd60e51b815260206004820152602c60248201527f4552433732313a206f70657261746f7220717565727920666f72206e6f6e657860448201526b34b9ba32b73a103a37b5b2b760a11b6064820152608401610874565b6000611fc283610f54565b9050806001600160a01b0316846001600160a01b03161480611ffd5750836001600160a01b0316611ff2846107ff565b6001600160a01b0316145b80610bc457506001600160a01b038082166000908152606a602090815260408083209388168352929052205460ff16610bc4565b826001600160a01b031661204482610f54565b6001600160a01b0316146120a85760405162461bcd60e51b815260206004820152602560248201527f4552433732313a207472616e736665722066726f6d20696e636f72726563742060448201526437bbb732b960d91b6064820152608401610874565b6001600160a01b03821661210a5760405162461bcd60e51b8152602060048201526024808201527f4552433732313a207472616e7366657220746f20746865207a65726f206164646044820152637265737360e01b6064820152608401610874565b612115838383612672565b612120600082611e7e565b6001600160a01b0383166000908152606860205260408120805460019290612149908490613293565b90915550506001600160a01b038216600090815260686020526040812080546001929061217790849061325c565b909155505060008181526067602052604080822080546001600160a01b0319166001600160a01b0386811691821790925591518493918716917fddf252ad1be2c89b69c2b068fc378daa952ba7f163c4a11628f55a4df523b3ef91a4505050565b60006121e4828461325c565b9392505050565b60006121e48284613274565b6001600160a01b03821661224d5760405162461bcd60e51b815260206004820181905260248201527f4552433732313a206d696e7420746f20746865207a65726f20616464726573736044820152606401610874565b6000818152606760205260409020546001600160a01b0316156122b25760405162461bcd60e51b815260206004820152601c60248201527f4552433732313a20746f6b656e20616c7265616479206d696e746564000000006044820152606401610874565b6122be60008383612672565b6001600160a01b03821660009081526068602052604081208054600192906122e790849061325c565b909155505060008181526067602052604080822080546001600160a01b0319166001600160a01b03861690811790915590518392907fddf252ad1be2c89b69c2b068fc378daa952ba7f163c4a11628f55a4df523b3ef908290a45050565b60c980546001600160a01b038381166001600160a01b0319831681179093556040519116919082907f8be0079c531659141344cd1fd0a4f28419497f9722a3daafe3b4186f6b6457e090600090a35050565b816001600160a01b0316836001600160a01b031614156123f95760405162461bcd60e51b815260206004820152601960248201527f4552433732313a20617070726f766520746f2063616c6c6572000000000000006044820152606401610874565b6001600160a01b038381166000818152606a6020908152604080832094871680845294825291829020805460ff191686151590811790915591519182527f17307eab39ab6107e8899845ad3d59bd9653f200f220920489ca2b5937696c31910160405180910390a3505050565b600061247182610f54565b905061247f81600084612672565b61248a600083611e7e565b6001600160a01b03811660009081526068602052604081208054600192906124b3908490613293565b909155505060008281526067602052604080822080546001600160a01b0319169055518391906001600160a01b038416907fddf252ad1be2c89b69c2b068fc378daa952ba7f163c4a11628f55a4df523b3ef908390a45050565b612518848484612031565b6125248484848461272a565b610bb55760405162461bcd60e51b8152600401610874906130b8565b600054610100900460ff166125675760405162461bcd60e51b815260040161087490613190565b611203612834565b600054610100900460ff166125965760405162461bcd60e51b815260040161087490613190565b610dfe8282612864565b60006125f5826040518060400160405280602081526020017f5361666545524332303a206c6f772d6c6576656c2063616c6c206661696c6564815250856001600160a01b03166128b29092919063ffffffff16565b8051909150156109aa57808060200190518101906126139190612ee6565b6109aa5760405162461bcd60e51b815260206004820152602a60248201527f5361666545524332303a204552433230206f7065726174696f6e20646964206e6044820152691bdd081cdd58d8d9595960b21b6064820152608401610874565b6001600160a01b0383166126cd576126c881609980546000838152609a60205260408120829055600182018355919091527f72a152ddfb8e864297c917af52ea6c1c68aead0fee1a62673fcc7e0c94979d000155565b6126f0565b816001600160a01b0316836001600160a01b0316146126f0576126f083826128c1565b6001600160a01b038216612707576109aa8161295e565b826001600160a01b0316826001600160a01b0316146109aa576109aa8282612a37565b60006001600160a01b0384163b1561282c57604051630a85bd0160e11b81526001600160a01b0385169063150b7a029061276e903390899088908890600401613024565b602060405180830381600087803b15801561278857600080fd5b505af19250505080156127b8575060408051601f3d908101601f191682019092526127b591810190612f1e565b60015b612812573d8080156127e6576040519150601f19603f3d011682016040523d82523d6000602084013e6127eb565b606091505b50805161280a5760405162461bcd60e51b8152600401610874906130b8565b805181602001fd5b6001600160e01b031916630a85bd0160e11b149050610bc4565b506001610bc4565b600054610100900460ff1661285b5760405162461bcd60e51b815260040161087490613190565b61120333612345565b600054610100900460ff1661288b5760405162461bcd60e51b815260040161087490613190565b815161289e906065906020850190612be5565b5080516109aa906066906020840190612be5565b6060610bc48484600085612a7b565b600060016128ce84611148565b6128d89190613293565b60008381526098602052604090205490915080821461292b576001600160a01b03841660009081526097602090815260408083208584528252808320548484528184208190558352609890915290208190555b5060009182526098602090815260408084208490556001600160a01b039094168352609781528383209183525290812055565b60995460009061297090600190613293565b6000838152609a6020526040812054609980549394509092849081106129a657634e487b7160e01b600052603260045260246000fd5b9060005260206000200154905080609983815481106129d557634e487b7160e01b600052603260045260246000fd5b6000918252602080832090910192909255828152609a90915260408082208490558582528120556099805480612a1b57634e487b7160e01b600052603160045260246000fd5b6001900381819060005260206000200160009055905550505050565b6000612a4283611148565b6001600160a01b039093166000908152609760209081526040808320868452825280832085905593825260989052919091209190915550565b606082471015612adc5760405162461bcd60e51b815260206004820152602660248201527f416464726573733a20696e73756666696369656e742062616c616e636520666f6044820152651c8818d85b1b60d21b6064820152608401610874565b6001600160a01b0385163b612b335760405162461bcd60e51b815260206004820152601d60248201527f416464726573733a2063616c6c20746f206e6f6e2d636f6e74726163740000006044820152606401610874565b600080866001600160a01b03168587604051612b4f9190613008565b60006040518083038185875af1925050503d8060008114612b8c576040519150601f19603f3d011682016040523d82523d6000602084013e612b91565b606091505b5091509150612ba1828286612bac565b979650505050505050565b60608315612bbb5750816121e4565b825115612bcb5782518084602001fd5b8160405162461bcd60e51b815260040161087491906130a5565b828054612bf1906132d6565b90600052602060002090601f016020900481019282612c135760008555612c59565b82601f10612c2c57805160ff1916838001178555612c59565b82800160010185558215612c59579182015b82811115612c59578251825591602001919060010190612c3e565b50612c65929150612c69565b5090565b5b80821115612c655760008155600101612c6a565b803563ffffffff81168114612c9257600080fd5b919050565b80356001600160401b0381168114612c9257600080fd5b600060208284031215612cbf578081fd5b81356121e481613358565b600060208284031215612cdb578081fd5b81516121e481613358565b60008060408385031215612cf8578081fd5b8235612d0381613358565b91506020830135612d1381613358565b809150509250929050565b600080600060608486031215612d32578081fd5b8335612d3d81613358565b92506020840135612d4d81613358565b929592945050506040919091013590565b60008060008060808587031215612d73578081fd5b8435612d7e81613358565b93506020850135612d8e81613358565b92506040850135915060608501356001600160401b03811115612daf578182fd5b8501601f81018713612dbf578182fd5b8035612dd2612dcd82613235565b613205565b818152886020838501011115612de6578384fd5b81602084016020830137908101602001929092525092959194509250565b60008060408385031215612e16578182fd5b8235612e2181613358565b91506020830135612d138161336d565b60008060408385031215612e43578182fd5b8235612e4e81613358565b946020939093013593505050565b600080600080600080600080610100898b031215612e78578384fd5b8835612e8381613358565b975060208901359650612e9860408a01612c97565b9550612ea660608a01612c97565b9450612eb460808a01612c7e565b9350612ec260a08a01612c7e565b9250612ed060c08a01612c7e565b915060e089013590509295985092959890939650565b600060208284031215612ef7578081fd5b81516121e48161336d565b600060208284031215612f13578081fd5b81356121e48161337b565b600060208284031215612f2f578081fd5b81516121e48161337b565b600060208284031215612f4b578081fd5b81516001600160401b03811115612f60578182fd5b8201601f81018413612f70578182fd5b8051612f7e612dcd82613235565b818152856020838501011115612f92578384fd5b612fa38260208301602086016132aa565b95945050505050565b600060208284031215612fbd578081fd5b5035919050565b600060208284031215612fd5578081fd5b5051919050565b60008151808452612ff48160208601602086016132aa565b601f01601f19169290920160200192915050565b6000825161301a8184602087016132aa565b9190910192915050565b6001600160a01b038581168252841660208201526040810183905260806060820181905260009061305790830184612fdc565b9695505050505050565b6020808252825182820181905260009190848201906040850190845b818110156130995783518352928401929184019160010161307d565b50909695505050505050565b6020815260006121e46020830184612fdc565b60208082526032908201527f4552433732313a207472616e7366657220746f206e6f6e20455243373231526560408201527131b2b4bb32b91034b6b83632b6b2b73a32b960711b606082015260800190565b6020808252818101527f4f776e61626c653a2063616c6c6572206973206e6f7420746865206f776e6572604082015260600190565b60208082526031908201527f4552433732313a207472616e736665722063616c6c6572206973206e6f74206f6040820152701ddb995c881b9bdc88185c1c1c9bdd9959607a1b606082015260800190565b6020808252602b908201527f496e697469616c697a61626c653a20636f6e7472616374206973206e6f74206960408201526a6e697469616c697a696e6760a81b606082015260800190565b60208082526010908201526f2637ba3a32b93c903737ba1037bb32b960811b604082015260600190565b604051601f8201601f191681016001600160401b038111828210171561322d5761322d613342565b604052919050565b60006001600160401b0382111561324e5761324e613342565b50601f01601f191660200190565b6000821982111561326f5761326f61332c565b500190565b600081600019048311821515161561328e5761328e61332c565b500290565b6000828210156132a5576132a561332c565b500390565b60005b838110156132c55781810151838201526020016132ad565b83811115610bb55750506000910152565b600181811c908216806132ea57607f821691505b6020821081141561330b57634e487b7160e01b600052602260045260246000fd5b50919050565b60006000198214156133255761332561332c565b5060010190565b634e487b7160e01b600052601160045260246000fd5b634e487b7160e01b600052604160045260246000fd5b6001600160a01b038116811461114557600080fd5b801515811461114557600080fd5b6001600160e01b03198116811461114557600080fdfea26469706673582212209cf6e28e71a45249cca9d560a2a7c2e314fcb452353d82dbc86cc53323bbdd2564736f6c63430008040033",
  "linkReferences": {},
  "deployedLinkReferences": {}
}